:03000000020218E1
:0C021800787FE4F6D8FD758115020180A6
:0A022400C0F9A4B0999282F880900E
:10018000D2B275A8814388017510007511641201FF
:10019000F8E511151170021510D3E5119400E51062
:0601A000940050EA80E229
:03000300020006F2
:0D000600C0E0C0F0C083C082C0D075D00043
:10001300751400751500C2A87F0F1201E630B205F2
:10002300D2A802017520B2077F011201E680F6759E
:10003300120075130030B2077F011201E680F6202B
:10004300B2077F011201E680F630B2137F0112017D
:10005300E60514E514C3941E40EFD2A8020175749B
:10006300092512F8C000E6FFC313D000F6E514C358
:100073009408400974092512F8E64480F6751400C3
:100083000513E513C3940840AC0512E512C39404A9
:1000930040A0E50CF4650B6005D2A8020175E50BE1
:1000A300540FF50EE50BC4540FF50FE50ED3940969
:1000B3004004743780027430250EF50EE50FD39497
:1000C300094004743780027430250FF50FE50F548F
:1000D3000FC454F0FFE50E540F2FF5151201A601BE
:1000E3000903012208013513010416010E180170DA
:1000F30041014F42013A51015452011D5500000183
:1001030073750800806A750801806575080FD290C1
:10011300C291D292C293D294802A750803805175FA
:10012300080ED290C291C292C293D294C295C29643
:100133008016750805803975080DC290C291D29258
:10014300C293C294C295D296C2978018750807804D
:100153001F75080CC290D291C292D293C294D295C9
:10016300C296D2977F147E001201CC8003750809D2
:02017300D2A810
:0B017500D0D0D082D083D0F0D0E03298
:1001E600AD071FED600BE4FEEEC3940D50F20E80DA
:0101F600F711
:0101F70022E5
:1001F800E50890022493F580C2A37F051201E6D298
:02020800A3222F
:1001CC00EF1FAA0670011E4A600FE4FDEDC394FAFE
:0901DC0050EE000000000D80F35C
:0101E50022F7
:0D020A007F587E1FEF1F70011EEF4E70F732
:0102170022C4
:1001A600D083D082F8E4937012740193700DA3A3E8
:1001B60093F8740193F5828883E4737402936860FC
:0601C600EFA3A3A380DFFC
:00000001FF
